{
  "abi": [
    {
      "inputs": [],
      "stateMutability": "nonpayable",
      "type": "constructor"
    },
    {
      "inputs": [
        {
          "internalType": "uint256",
          "name": "item",
          "type": "uint256"
        }
      ],
      "name": "add",
      "outputs": [],
      "stateMutability": "nonpayable",
      "type": "function"
    },
    {
      "inputs": [
        {
          "internalType": "uint256",
          "name": "item",
          "type": "uint256"
        }
      ],
      "name": "getIndex",
      "outputs": [
        {
          "internalType": "bool",
          "name": "",
          "type": "bool"
        },
        {
          "internalType": "uint256",
          "name": "",
          "type": "uint256"
        }
      ],
      "stateMutability": "view",
      "type": "function"
    },
    {
      "inputs": [],
      "name": "getItems",
      "outputs": [
        {
          "internalType": "uint256[]",
          "name": "",
          "type": "uint256[]"
        }
      ],
      "stateMutability": "view",
      "type": "function"
    },
    {
      "inputs": [
        {
          "internalType": "uint256",
          "name": "item",
          "type": "uint256"
        }
      ],
      "name": "has",
      "outputs": [
        {
          "internalType": "bool",
          "name": "",
          "type": "bool"
        }
      ],
      "stateMutability": "view",
      "type": "function"
    },
    {
      "inputs": [
        {
          "internalType": "uint256",
          "name": "item",
          "type": "uint256"
        }
      ],
      "name": "remove",
      "outputs": [],
      "stateMutability": "nonpayable",
      "type": "function"
    },
    {
      "inputs": [],
      "name": "size",
      "outputs": [
        {
          "internalType": "uint256",
          "name": "",
          "type": "uint256"
        }
      ],
      "stateMutability": "view",
      "type": "function"
    }
  ],
  "bytecode": {
    "object": "0x60806040526000805460ff1916905534801561001a57600080fd5b506000805460ff19166001179055610429806100376000396000f3fe608060405234801561001057600080fd5b50600436106100625760003560e01c80631003e2d214610067578063410d59cc1461007c5780634cc822151461009a5780638e7cb6e1146100ad578063949d225d146100d7578063cccf7a8e146100e8575b600080fd5b61007a610075366004610343565b61010b565b005b61008461015f565b604051610091919061035c565b60405180910390f35b61007a6100a8366004610343565b6101b7565b6100c06100bb366004610343565b6102ac565b604080519215158352602083019190915201610091565b600154604051908152602001610091565b6100fb6100f6366004610343565b6102dd565b6040519015158152602001610091565b610114816102dd565b1561011c5750565b6001805460008381526002602052604081208290558183018355919091527fb10e2d527612073b26eecdfd717e6a320cf44b4afac2b0732d9fcbe2b7fa0cf60155565b606060018054806020026020016040519081016040528092919081815260200182805480156101ad57602002820191906000526020600020905b815481526020019060010190808311610199575b5050505050905090565b6101c0816102dd565b6101c75750565b600180546101d69082906103a0565b815481106101e6576101e66103c7565b90600052602060002001546001600260008481526020019081526020016000205481548110610217576102176103c7565b6000918252602080832090910192909255828152600291829052604081205460018054919392918490811061024e5761024e6103c7565b906000526020600020015481526020019081526020016000208190555060026000828152602001908152602001600020600090556001805480610293576102936103dd565b6001900381819060005260206000200160009055905550565b6000806102b8836102dd565b6102c757506000928392509050565b5050600090815260026020526040902054600191565b60015460009081036102f157506000919050565b600082815260026020526040812054900361032e5781600160008154811061031b5761031b6103c7565b9060005260206000200154149050919050565b50600090815260026020526040902054151590565b60006020828403121561035557600080fd5b5035919050565b6020808252825182820181905260009190848201906040850190845b8181101561039457835183529284019291840191600101610378565b50909695505050505050565b818103818111156103c157634e487b7160e01b600052601160045260246000fd5b92915050565b634e487b7160e01b600052603260045260246000fd5b634e487b7160e01b600052603160045260246000fdfea2646970667358221220c71c84bab183378a8c23bd2d63fdf6083b8dcfa1a377638db66c85de7de4f31964736f6c63430008110033",
    "linkReferences": {}
  },
  "methodIdentifiers": {
    "add(uint256)": "1003e2d2",
    "getIndex(uint256)": "8e7cb6e1",
    "getItems()": "410d59cc",
    "has(uint256)": "cccf7a8e",
    "remove(uint256)": "4cc82215",
    "size()": "949d225d"
  },
  "id": 6
}