{
  "abi": [
    {
      "inputs": [
        {
          "internalType": "contract World",
          "name": "_world",
          "type": "address"
        },
        {
          "internalType": "string",
          "name": "idString",
          "type": "string"
        }
      ],
      "stateMutability": "nonpayable",
      "type": "constructor"
    },
    {
      "inputs": [
        {
          "internalType": "bytes",
          "name": "arguments",
          "type": "bytes"
        }
      ],
      "name": "_execute",
      "outputs": [
        {
          "internalType": "bytes",
          "name": "",
          "type": "bytes"
        }
      ],
      "stateMutability": "nonpayable",
      "type": "function"
    },
    {
      "inputs": [
        {
          "internalType": "address",
          "name": "_subProcedure",
          "type": "address"
        }
      ],
      "name": "addSubProcedure",
      "outputs": [],
      "stateMutability": "nonpayable",
      "type": "function"
    },
    {
      "inputs": [
        {
          "internalType": "address",
          "name": "subProcedure",
          "type": "address"
        },
        {
          "internalType": "string",
          "name": "id",
          "type": "string"
        }
      ],
      "name": "addSubProcedureToOrderedRoleIds",
      "outputs": [],
      "stateMutability": "nonpayable",
      "type": "function"
    },
    {
      "inputs": [
        {
          "internalType": "uint256[]",
          "name": "entities",
          "type": "uint256[]"
        }
      ],
      "name": "execute",
      "outputs": [
        {
          "internalType": "bytes",
          "name": "result",
          "type": "bytes"
        }
      ],
      "stateMutability": "nonpayable",
      "type": "function"
    },
    {
      "inputs": [
        {
          "internalType": "address",
          "name": "subProcedure",
          "type": "address"
        }
      ],
      "name": "getSubProcedureToOrderedRoleIds",
      "outputs": [
        {
          "internalType": "string[]",
          "name": "",
          "type": "string[]"
        }
      ],
      "stateMutability": "view",
      "type": "function"
    },
    {
      "inputs": [],
      "name": "getSubProcedures",
      "outputs": [
        {
          "internalType": "address[]",
          "name": "",
          "type": "address[]"
        }
      ],
      "stateMutability": "view",
      "type": "function"
    },
    {
      "inputs": [],
      "name": "id",
      "outputs": [
        {
          "internalType": "uint256",
          "name": "",
          "type": "uint256"
        }
      ],
      "stateMutability": "view",
      "type": "function"
    },
    {
      "inputs": [],
      "name": "idString",
      "outputs": [
        {
          "internalType": "string",
          "name": "",
          "type": "string"
        }
      ],
      "stateMutability": "view",
      "type": "function"
    },
    {
      "inputs": [
        {
          "internalType": "address",
          "name": "_subProcedure",
          "type": "address"
        }
      ],
      "name": "removeSubProcedure",
      "outputs": [],
      "stateMutability": "nonpayable",
      "type": "function"
    },
    {
      "inputs": [
        {
          "internalType": "address",
          "name": "subProcedure",
          "type": "address"
        },
        {
          "internalType": "string",
          "name": "id",
          "type": "string"
        }
      ],
      "name": "removeSubProcedureToOrderedRoleIds",
      "outputs": [],
      "stateMutability": "nonpayable",
      "type": "function"
    },
    {
      "inputs": [
        {
          "internalType": "address",
          "name": "subProcedure",
          "type": "address"
        },
        {
          "internalType": "string[]",
          "name": "ids",
          "type": "string[]"
        }
      ],
      "name": "setSubProcedureToOrderedRoleIds",
      "outputs": [],
      "stateMutability": "nonpayable",
      "type": "function"
    },
    {
      "inputs": [
        {
          "internalType": "address[]",
          "name": "_subProcedures",
          "type": "address[]"
        }
      ],
      "name": "setSubProcedures",
      "outputs": [],
      "stateMutability": "nonpayable",
      "type": "function"
    },
    {
      "inputs": [
        {
          "internalType": "address",
          "name": "",
          "type": "address"
        },
        {
          "internalType": "uint256",
          "name": "",
          "type": "uint256"
        }
      ],
      "name": "subProcedureToOrderedRoleIds",
      "outputs": [
        {
          "internalType": "string",
          "name": "",
          "type": "string"
        }
      ],
      "stateMutability": "view",
      "type": "function"
    },
    {
      "inputs": [
        {
          "internalType": "uint256",
          "name": "",
          "type": "uint256"
        }
      ],
      "name": "subProcedures",
      "outputs": [
        {
          "internalType": "address",
          "name": "",
          "type": "address"
        }
      ],
      "stateMutability": "view",
      "type": "function"
    }
  ],
  "bytecode": {
    "object": "0x60806040523480156200001157600080fd5b5060405162002248380380620022488339810160408190526200003491620003ea565b60408051600080825260208201818152828401828152606084019094528593909162000071565b60608152602001906001900390816200005b5790505b5060408051808201909152601881527f776f726c642e70726f6365647572652e72656769737465720000000000000000602080830191909152600080546001600160a01b0319166001600160a01b03881617905584517fa902f48f74ca6aea3b967f8a3c84bfa4fb248f7db70fd6ae76d6ab37e6bf32b69291620000fb9160039188019062000297565b506200010884846200012a565b600182905560026200011b82826200056f565b50505050505050505062000679565b6000805b600354811015620002915760008482815181106200015057620001506200063b565b602002602001015160ff1690506000816001600160401b038111156200017a576200017a620003d4565b604051908082528060200260200182016040528015620001af57816020015b6060815260200190600190039081620001995790505b50905060005b828110156200022157858581518110620001d357620001d36200063b565b6020026020010151828281518110620001f057620001f06200063b565b60200260200101819052508480620002089062000651565b9550508080620002189062000651565b915050620001b5565b508060046000600386815481106200023d576200023d6200063b565b60009182526020808320909101546001600160a01b031683528281019390935260409091019020825162000278939192919091019062000301565b5050508080620002889062000651565b9150506200012e565b50505050565b828054828255906000526020600020908101928215620002ef579160200282015b82811115620002ef57825182546001600160a01b0319166001600160a01b03909116178255602090920191600190910190620002b8565b50620002fd9291506200035a565b5090565b8280548282559060005260206000209081019282156200034c579160200282015b828111156200034c57825182906200033b90826200056f565b509160200191906001019062000322565b50620002fd92915062000371565b5b80821115620002fd57600081556001016200035b565b80821115620002fd57600062000388828262000392565b5060010162000371565b508054620003a090620004e0565b6000825580601f10620003b1575050565b601f016020900490600052602060002090810190620003d191906200035a565b50565b634e487b7160e01b600052604160045260246000fd5b60008060408385031215620003fe57600080fd5b82516001600160a01b03811681146200041657600080fd5b602084810151919350906001600160401b03808211156200043657600080fd5b818601915086601f8301126200044b57600080fd5b815181811115620004605762000460620003d4565b604051601f8201601f19908116603f011681019083821181831017156200048b576200048b620003d4565b816040528281528986848701011115620004a457600080fd5b600093505b82841015620004c85784840186015181850187015292850192620004a9565b60008684830101528096505050505050509250929050565b600181811c90821680620004f557607f821691505b6020821081036200051657634e487b7160e01b600052602260045260246000fd5b50919050565b601f8211156200056a57600081815260208120601f850160051c81016020861015620005455750805b601f850160051c820191505b81811015620005665782815560010162000551565b5050505b505050565b81516001600160401b038111156200058b576200058b620003d4565b620005a3816200059c8454620004e0565b846200051c565b602080601f831160018114620005db5760008415620005c25750858301515b600019600386901b1c1916600185901b17855562000566565b600085815260208120601f198616915b828110156200060c57888601518255948401946001909101908401620005eb565b50858210156200062b5787850151600019600388901b60f8161c191681555b5050505050600190811b01905550565b634e487b7160e01b600052603260045260246000fd5b6000600182016200067257634e487b7160e01b600052601160045260246000fd5b5060010190565b611bbf80620006896000396000f3fe608060405234801561001057600080fd5b50600436106100ea5760003560e01c8063af640d0f1161008c578063ca047fc211610066578063ca047fc21461022c578063dcb95eaa14610241578063eadf3c9b14610254578063f62323491461026757600080fd5b8063af640d0f146101a2578063b81cde65146101b9578063c2b281ae146101cc57600080fd5b806364b677bc116100c857806364b677bc146101545780638ef16cd914610174578063902f5777146101875780639e8bdbb91461018f57600080fd5b8063065981b0146100ef5780630d5e84b014610104578063118a881014610134575b600080fd5b6101026100fd366004611216565b61027a565b005b6101176101123660046112b5565b610291565b6040516001600160a01b0390911681526020015b60405180910390f35b6101476101423660046112ce565b6102bb565b60405161012b9190611342565b6101676101623660046113fc565b6103aa565b60405161012b919061144d565b610167610182366004611460565b6109f8565b610167610ad7565b61010261019d366004611506565b610b65565b6101ab60015481565b60405190815260200161012b565b6101026101c73660046112ce565b610b93565b6101026101da3660046112ce565b600380546001810182556000919091527fc2575a0e9e593c00f959f8c92f12db2869c3395a3b0502d05e2516446f71f85b0180546001600160a01b0319166001600160a01b0392909216919091179055565b610234610c9a565b60405161012b91906115cc565b61010261024f366004611619565b610cfc565b610102610262366004611619565b610e2b565b610167610275366004611669565b610e5d565b805161028d906003906020840190611070565b5050565b600381815481106102a157600080fd5b6000918252602090912001546001600160a01b0316905081565b6001600160a01b0381166000908152600460209081526040808320805482518185028101850190935280835260609492939192909184015b8282101561039f57838290600052602060002001805461031290611695565b80601f016020809104026020016040519081016040528092919081815260200182805461033e90611695565b801561038b5780601f106103605761010080835404028352916020019161038b565b820191906000526020600020905b81548152906001019060200180831161036e57829003601f168201915b5050505050815260200190600101906102f3565b505050509050919050565b6060600080600080858060200190518101906103c691906116c9565b600054939750919550935091506001600160a01b0316331461044b5760405162461bcd60e51b815260206004820152603360248201527f526567697374726174696f6e50726f6365647572652063616e206f6e6c792062604482015272329031b0b63632b2103b34b0902bb7b936321760691b60648201526084015b60405180910390fd5b600083600181111561045f5761045f611720565b148061047c5750600183600181111561047a5761047a611720565b145b6104b85760405162461bcd60e51b815260206004820152600d60248201526c24b73b30b634b2103a3cb8329760991b6044820152606401610442565b806000036104f65760405162461bcd60e51b815260206004820152600b60248201526a24b73b30b634b21034b21760a91b6044820152606401610442565b6001600160a01b03821661053f5760405162461bcd60e51b815260206004820152601060248201526f24b73b30b634b21030b2323932b9b99760811b6044820152606401610442565b60008084600181111561055457610554611720565b146105d35760008054906101000a90046001600160a01b03166001600160a01b031663c0a90d246040518163ffffffff1660e01b8152600401602060405180830381865afa1580156105aa573d6000803e3d6000fd5b505050506040513d601f19601f820116820180604052508101906105ce9190611736565b610648565b60008054906101000a90046001600160a01b03166001600160a01b0316638eff3c296040518163ffffffff1660e01b8152600401602060405180830381865afa158015610624573d6000803e3d6000fd5b505050506040513d601f19601f820116820180604052508101906106489190611736565b905060006001600160a01b03841690506000826001600160a01b031663e45d21da6040518163ffffffff1660e01b8152600401602060405180830381865afa158015610698573d6000803e3d6000fd5b505050506040513d601f19601f820116820180604052508101906106bc9190611736565b6040516347b84f4160e01b8152600481018490526001600160a01b038083166024830152919250908416906347b84f4190604401602060405180830381865afa15801561070d573d6000803e3d6000fd5b505050506040513d601f19601f820116820180604052508101906107319190611753565b1561077e5760405162461bcd60e51b815260206004820152601960248201527f656e7469747920616c72656164792072656769737465726564000000000000006044820152606401610442565b60405163154bae2f60e21b8152600481018590526001600160a01b0382811660248301526000919085169063552eb8bc90604401600060405180830381865afa1580156107cf573d6000803e3d6000fd5b505050506040513d6000823e601f3d908101601f191682016040526107f79190810190611775565b90508051600014806108a75750805160011480156108a75750876001600160a01b031661083b82600081518110610830576108306117fb565b602002602001015190565b6001600160a01b0316638da5cb5b6040518163ffffffff1660e01b8152600401602060405180830381865afa158015610878573d6000803e3d6000fd5b505050506040513d601f19601f8201168201806040525081019061089c9190611736565b6001600160a01b0316145b6109065760405162461bcd60e51b815260206004820152602a60248201527f696420616c7265616479207265676973746572656420616e642063616c6c6572604482015269103737ba1037bbb732b960b11b6064820152608401610442565b805160010361098a57836001600160a01b0316634cc8221582600081518110610931576109316117fb565b60200260200101516040518263ffffffff1660e01b815260040161095791815260200190565b600060405180830381600087803b15801561097157600080fd5b505af1158015610985573d6000803e3d6000fd5b505050505b604051631ab06ee560e01b815260048101849052602481018690526001600160a01b03851690631ab06ee590604401600060405180830381600087803b1580156109d357600080fd5b505af11580156109e7573d6000803e3d6000fd5b505050505050505050505050919050565b60035460609015610ab95760005b600354811015610ab357600060038281548110610a2557610a256117fb565b60009182526020822001546001600160a01b03169150610a458286610e95565b9050600081604051602001610a5a9190611811565b60405160208183030381529060405290506000610a76826103aa565b90508581604051602001610a8b929190611887565b6040516020818303038152906040529550505050508080610aab906118cc565b915050610a06565b50919050565b610ad1604051806020016040528060008152506103aa565b92915050565b60028054610ae490611695565b80601f0160208091040260200160405190810160405280929190818152602001828054610b1090611695565b8015610b5d5780601f10610b3257610100808354040283529160200191610b5d565b820191906000526020600020905b815481529060010190602001808311610b4057829003601f168201915b505050505081565b6001600160a01b03821660009081526004602090815260409091208251610b8e928401906110d5565b505050565b60005b60035481101561028d57816001600160a01b031660038281548110610bbd57610bbd6117fb565b6000918252602090912001546001600160a01b031603610c885760038054610be7906001906118e5565b81548110610bf757610bf76117fb565b600091825260209091200154600380546001600160a01b039092169183908110610c2357610c236117fb565b9060005260206000200160006101000a8154816001600160a01b0302191690836001600160a01b031602179055506003805480610c6257610c626118f8565b600082815260209020810160001990810180546001600160a01b03191690550190555050565b80610c92816118cc565b915050610b96565b60606003805480602002602001604051908101604052809291908181526020018280548015610cf257602002820191906000526020600020905b81546001600160a01b03168152600190910190602001808311610cd4575b5050505050905090565b6001600160a01b0382166000908152600460205260408120905b8154811015610e255782604051602001610d30919061190e565b60405160208183030381529060405280519060200120828281548110610d5857610d586117fb565b90600052602060002001604051602001610d72919061192a565b6040516020818303038152906040528051906020012003610e135781548290610d9d906001906118e5565b81548110610dad57610dad6117fb565b90600052602060002001828281548110610dc957610dc96117fb565b906000526020600020019081610ddf91906119ee565b5081805480610df057610df06118f8565b600190038181906000526020600020016000610e0c9190611127565b9055610e25565b80610e1d816118cc565b915050610d16565b50505050565b6001600160a01b038216600090815260046020908152604082208054600181018255908352912001610b8e8282611acf565b60046020528160005260406000208181548110610e7957600080fd5b90600052602060002001600091509150508054610ae490611695565b6001600160a01b0382166000908152600460209081526040808320805482518185028101850190935280835260609493849084015b82821015610f76578382906000526020600020018054610ee990611695565b80601f0160208091040260200160405190810160405280929190818152602001828054610f1590611695565b8015610f625780601f10610f3757610100808354040283529160200191610f62565b820191906000526020600020905b815481529060010190602001808311610f4557829003601f168201915b505050505081526020019060010190610eca565b505050509050805167ffffffffffffffff811115610f9657610f96611196565b604051908082528060200260200182016040528015610fdc57816020015b604080518082019091526060815260006020820152815260200190600190039081610fb45790505b50915060005b8151811015611068576000828281518110610fff57610fff6117fb565b60200260200101519050604051806040016040528082815260200186848151811061102c5761102c6117fb565b6020026020010151815250848381518110611049576110496117fb565b6020026020010181905250508080611060906118cc565b915050610fe2565b505092915050565b8280548282559060005260206000209081019282156110c5579160200282015b828111156110c557825182546001600160a01b0319166001600160a01b03909116178255602090920191600190910190611090565b506110d1929150611164565b5090565b82805482825590600052602060002090810192821561111b579160200282015b8281111561111b578251829061110b9082611acf565b50916020019190600101906110f5565b506110d1929150611179565b50805461113390611695565b6000825580601f10611143575050565b601f0160209004906000526020600020908101906111619190611164565b50565b5b808211156110d15760008155600101611165565b808211156110d157600061118d8282611127565b50600101611179565b634e487b7160e01b600052604160045260246000fd5b604051601f8201601f1916810167ffffffffffffffff811182821017156111d5576111d5611196565b604052919050565b600067ffffffffffffffff8211156111f7576111f7611196565b5060051b60200190565b6001600160a01b038116811461116157600080fd5b6000602080838503121561122957600080fd5b823567ffffffffffffffff81111561124057600080fd5b8301601f8101851361125157600080fd5b803561126461125f826111dd565b6111ac565b81815260059190911b8201830190838101908783111561128357600080fd5b928401925b828410156112aa57833561129b81611201565b82529284019290840190611288565b979650505050505050565b6000602082840312156112c757600080fd5b5035919050565b6000602082840312156112e057600080fd5b81356112eb81611201565b9392505050565b60005b8381101561130d5781810151838201526020016112f5565b50506000910152565b6000815180845261132e8160208601602086016112f2565b601f01601f19169290920160200192915050565b6000602080830181845280855180835260408601915060408160051b870101925083870160005b8281101561139757603f19888603018452611385858351611316565b94509285019290850190600101611369565b5092979650505050505050565b600067ffffffffffffffff8311156113be576113be611196565b6113d1601f8401601f19166020016111ac565b90508281528383830111156113e557600080fd5b828260208301376000602084830101529392505050565b60006020828403121561140e57600080fd5b813567ffffffffffffffff81111561142557600080fd5b8201601f8101841361143657600080fd5b611445848235602084016113a4565b949350505050565b6020815260006112eb6020830184611316565b6000602080838503121561147357600080fd5b823567ffffffffffffffff81111561148a57600080fd5b8301601f8101851361149b57600080fd5b80356114a961125f826111dd565b81815260059190911b820183019083810190878311156114c857600080fd5b928401925b828410156112aa578335825292840192908401906114cd565b600082601f8301126114f757600080fd5b6112eb838335602085016113a4565b6000806040838503121561151957600080fd5b823561152481611201565b915060208381013567ffffffffffffffff8082111561154257600080fd5b818601915086601f83011261155657600080fd5b813561156461125f826111dd565b81815260059190911b8301840190848101908983111561158357600080fd5b8585015b838110156115bb5780358581111561159f5760008081fd5b6115ad8c89838a01016114e6565b845250918601918601611587565b508096505050505050509250929050565b6020808252825182820181905260009190848201906040850190845b8181101561160d5783516001600160a01b0316835292840192918401916001016115e8565b50909695505050505050565b6000806040838503121561162c57600080fd5b823561163781611201565b9150602083013567ffffffffffffffff81111561165357600080fd5b61165f858286016114e6565b9150509250929050565b6000806040838503121561167c57600080fd5b823561168781611201565b946020939093013593505050565b600181811c908216806116a957607f821691505b602082108103610ab357634e487b7160e01b600052602260045260246000fd5b600080600080608085870312156116df57600080fd5b84516116ea81611201565b6020860151909450600281106116ff57600080fd5b604086015190935061171081611201565b6060959095015193969295505050565b634e487b7160e01b600052602160045260246000fd5b60006020828403121561174857600080fd5b81516112eb81611201565b60006020828403121561176557600080fd5b815180151581146112eb57600080fd5b6000602080838503121561178857600080fd5b825167ffffffffffffffff81111561179f57600080fd5b8301601f810185136117b057600080fd5b80516117be61125f826111dd565b81815260059190911b820183019083810190878311156117dd57600080fd5b928401925b828410156112aa578351825292840192908401906117e2565b634e487b7160e01b600052603260045260246000fd5b60006020808301818452808551808352604092508286019150828160051b87010184880160005b8381101561187957888303603f190185528151805187855261185c88860182611316565b918901519489019490945294870194925090860190600101611838565b509098975050505050505050565b600083516118998184602088016112f2565b8351908301906118ad8183602088016112f2565b01949350505050565b634e487b7160e01b600052601160045260246000fd5b6000600182016118de576118de6118b6565b5060010190565b81810381811115610ad157610ad16118b6565b634e487b7160e01b600052603160045260246000fd5b600082516119208184602087016112f2565b9190910192915050565b600080835461193881611695565b60018281168015611950576001811461196557611994565b60ff1984168752821515830287019450611994565b8760005260208060002060005b8581101561198b5781548a820152908401908201611972565b50505082870194505b50929695505050505050565b601f821115610b8e57600081815260208120601f850160051c810160208610156119c75750805b601f850160051c820191505b818110156119e6578281556001016119d3565b505050505050565b8181036119f9575050565b611a038254611695565b67ffffffffffffffff811115611a1b57611a1b611196565b611a2f81611a298454611695565b846119a0565b6000601f821160018114611a635760008315611a4b5750848201545b600019600385901b1c1916600184901b178455611ac8565b600085815260209020601f19841690600086815260209020845b83811015611a9d5782860154825560019586019590910190602001611a7d565b5085831015611abb5781850154600019600388901b60f8161c191681555b50505060018360011b0184555b5050505050565b815167ffffffffffffffff811115611ae957611ae9611196565b611af781611a298454611695565b602080601f831160018114611b2c5760008415611b145750858301515b600019600386901b1c1916600185901b1785556119e6565b600085815260208120601f198616915b82811015611b5b57888601518255948401946001909101908401611b3c565b5085821015611b795787850151600019600388901b60f8161c191681555b5050505050600190811b0190555056fea264697066735822122045b090143b86621cc8188e865318075a0ea36791d817b032ba12bc8e1778f9ac64736f6c63430008110033",
    "linkReferences": {}
  },
  "methodIdentifiers": {
    "_execute(bytes)": "64b677bc",
    "addSubProcedure(address)": "c2b281ae",
    "addSubProcedureToOrderedRoleIds(address,string)": "eadf3c9b",
    "execute(uint256[])": "8ef16cd9",
    "getSubProcedureToOrderedRoleIds(address)": "118a8810",
    "getSubProcedures()": "ca047fc2",
    "id()": "af640d0f",
    "idString()": "902f5777",
    "removeSubProcedure(address)": "b81cde65",
    "removeSubProcedureToOrderedRoleIds(address,string)": "dcb95eaa",
    "setSubProcedureToOrderedRoleIds(address,string[])": "9e8bdbb9",
    "setSubProcedures(address[])": "065981b0",
    "subProcedureToOrderedRoleIds(address,uint256)": "f6232349",
    "subProcedures(uint256)": "0d5e84b0"
  },
  "id": 13
}