{
  "abi": [
    {
      "inputs": [],
      "stateMutability": "nonpayable",
      "type": "constructor"
    },
    {
      "inputs": [
        {
          "internalType": "uint256",
          "name": "setKey",
          "type": "uint256"
        },
        {
          "internalType": "uint256",
          "name": "item",
          "type": "uint256"
        }
      ],
      "name": "add",
      "outputs": [],
      "stateMutability": "nonpayable",
      "type": "function"
    },
    {
      "inputs": [
        {
          "internalType": "uint256",
          "name": "setKey",
          "type": "uint256"
        }
      ],
      "name": "getItems",
      "outputs": [
        {
          "internalType": "uint256[]",
          "name": "",
          "type": "uint256[]"
        }
      ],
      "stateMutability": "view",
      "type": "function"
    },
    {
      "inputs": [
        {
          "internalType": "uint256",
          "name": "setKey",
          "type": "uint256"
        },
        {
          "internalType": "uint256",
          "name": "item",
          "type": "uint256"
        }
      ],
      "name": "has",
      "outputs": [
        {
          "internalType": "bool",
          "name": "",
          "type": "bool"
        }
      ],
      "stateMutability": "view",
      "type": "function"
    },
    {
      "inputs": [
        {
          "internalType": "uint256",
          "name": "setKey",
          "type": "uint256"
        },
        {
          "internalType": "uint256",
          "name": "item",
          "type": "uint256"
        }
      ],
      "name": "remove",
      "outputs": [],
      "stateMutability": "nonpayable",
      "type": "function"
    },
    {
      "inputs": [
        {
          "internalType": "uint256",
          "name": "setKey",
          "type": "uint256"
        }
      ],
      "name": "size",
      "outputs": [
        {
          "internalType": "uint256",
          "name": "",
          "type": "uint256"
        }
      ],
      "stateMutability": "view",
      "type": "function"
    }
  ],
  "bytecode": {
    "object": "0x60806040526000805460ff1916905534801561001a57600080fd5b506000805460ff19166001179055610475806100376000396000f3fe608060405234801561001057600080fd5b50600436106100575760003560e01c80636526db7a1461005c578063771602f714610071578063796c5e941461008457806385edea13146100ad578063a0265ff8146100db575b600080fd5b61006f61006a366004610373565b6100fe565b005b61006f61007f366004610373565b610232565b610097610092366004610395565b61027e565b6040516100a491906103ae565b60405180910390f35b6100cd6100bb366004610395565b60009081526001602052604090205490565b6040519081526020016100a4565b6100ee6100e9366004610373565b6102e0565b60405190151581526020016100a4565b61010882826102e0565b610110575050565b60008281526001602081905260409091208054909161012e916103f2565b8154811061013e5761013e610413565b600091825260208083209091015484835260018252604080842060028452818520868652909352909220548154811061017957610179610413565b600091825260208083209091019290925583815260028252604080822084835280845281832054868452600185529183208584529381905283549193909291849081106101c8576101c8610413565b600091825260208083209091015483528281019390935260409182018120939093558483526002825280832084845282528083208390558483526001909152902080548061021857610218610429565b600190038181906000526020600020016000905590555050565b61023c82826102e0565b15610245575050565b60009182526001602081815260408085208054600284528287208688528452918620829055838352928101835591845290922090910155565b6000818152600160209081526040918290208054835181840281018401909452808452606093928301828280156102d457602002820191906000526020600020905b8154815260200190600101908083116102c0575b50505050509050919050565b60008281526001602052604081205481036102fd5750600061036d565b6000838152600260209081526040808320858452909152812054900361034f576000838152600160205260408120805484929061033c5761033c610413565b906000526020600020015414905061036d565b50600082815260026020908152604080832084845290915290205415155b92915050565b6000806040838503121561038657600080fd5b50508035926020909101359150565b6000602082840312156103a757600080fd5b5035919050565b6020808252825182820181905260009190848201906040850190845b818110156103e6578351835292840192918401916001016103ca565b50909695505050505050565b8181038181111561036d57634e487b7160e01b600052601160045260246000fd5b634e487b7160e01b600052603260045260246000fd5b634e487b7160e01b600052603160045260246000fdfea26469706673582212200bdca577f3bf39775cda70f17413103a14c9512b2d321fa03324e7310ccbd76d64736f6c63430008110033",
    "linkReferences": {}
  },
  "methodIdentifiers": {
    "add(uint256,uint256)": "771602f7",
    "getItems(uint256)": "796c5e94",
    "has(uint256,uint256)": "a0265ff8",
    "remove(uint256,uint256)": "6526db7a",
    "size(uint256)": "85edea13"
  },
  "id": 2
}