{
  "abi": [
    {
      "inputs": [],
      "stateMutability": "nonpayable",
      "type": "constructor"
    },
    {
      "inputs": [],
      "name": "getProcedures",
      "outputs": [
        {
          "internalType": "contract Uint256Record",
          "name": "",
          "type": "address"
        }
      ],
      "stateMutability": "view",
      "type": "function"
    },
    {
      "inputs": [],
      "name": "getRecords",
      "outputs": [
        {
          "internalType": "contract Uint256Record",
          "name": "",
          "type": "address"
        }
      ],
      "stateMutability": "view",
      "type": "function"
    }
  ],
  "bytecode": {
    "object": "0x6080604052604051610010906101d0565b604051809103906000f08015801561002c573d6000803e3d6000fd5b50600080546001600160a01b0319166001600160a01b039290921691909117905534801561005957600080fd5b5060007f40c641e2c8cd44f32566ebead6da9242792b62f1d22811e3706eb5fb81f394a460001c60405161008c906101dd565b6001600160a01b03909216825260208201526060604082018190526014908201527f776f726c642e7265636f72642e7265636f726473000000000000000000000000608082015260a001604051809103906000f0801580156100f2573d6000803e3d6000fd5b50600180546001600160a01b0319166001600160a01b03929092169190911790556040516000907fc5a91d9c29c8e461f86e5d2429db11f8c6a5aebca5e4f49d702831fed3d5b3b790610144906101dd565b6001600160a01b03909216825260208201526060604082018190526017908201527f776f726c642e7265636f72642e70726f63656475726573000000000000000000608082015260a001604051809103906000f0801580156101aa573d6000803e3d6000fd5b50600280546001600160a01b0319166001600160a01b03929092169190911790556101ea565b6104608061029e83390190565b611888806106fe83390190565b60a6806101f86000396000f3fe6080604052348015600f57600080fd5b506004361060325760003560e01c80638eff3c29146037578063c0a90d24146060575b600080fd5b6001546001600160a01b03165b6040516001600160a01b03909116815260200160405180910390f35b6002546001600160a01b0316604456fea26469706673582212201e01474fdfe4dae609542b50cf8e5695a05d7369ec607f102e29948151ae1c0b64736f6c6343000811003360806040526000805460ff1916905534801561001a57600080fd5b506000805460ff19166001179055610429806100376000396000f3fe608060405234801561001057600080fd5b50600436106100625760003560e01c80631003e2d214610067578063410d59cc1461007c5780634cc822151461009a5780638e7cb6e1146100ad578063949d225d146100d7578063cccf7a8e146100e8575b600080fd5b61007a610075366004610343565b61010b565b005b61008461015f565b604051610091919061035c565b60405180910390f35b61007a6100a8366004610343565b6101b7565b6100c06100bb366004610343565b6102ac565b604080519215158352602083019190915201610091565b600154604051908152602001610091565b6100fb6100f6366004610343565b6102dd565b6040519015158152602001610091565b610114816102dd565b1561011c5750565b6001805460008381526002602052604081208290558183018355919091527fb10e2d527612073b26eecdfd717e6a320cf44b4afac2b0732d9fcbe2b7fa0cf60155565b606060018054806020026020016040519081016040528092919081815260200182805480156101ad57602002820191906000526020600020905b815481526020019060010190808311610199575b5050505050905090565b6101c0816102dd565b6101c75750565b600180546101d69082906103a0565b815481106101e6576101e66103c7565b90600052602060002001546001600260008481526020019081526020016000205481548110610217576102176103c7565b6000918252602080832090910192909255828152600291829052604081205460018054919392918490811061024e5761024e6103c7565b906000526020600020015481526020019081526020016000208190555060026000828152602001908152602001600020600090556001805480610293576102936103dd565b6001900381819060005260206000200160009055905550565b6000806102b8836102dd565b6102c757506000928392509050565b5050600090815260026020526040902054600191565b60015460009081036102f157506000919050565b600082815260026020526040812054900361032e5781600160008154811061031b5761031b6103c7565b9060005260206000200154149050919050565b50600090815260026020526040902054151590565b60006020828403121561035557600080fd5b5035919050565b6020808252825182820181905260009190848201906040850190845b8181101561039457835183529284019291840191600101610378565b50909695505050505050565b818103818111156103c157634e487b7160e01b600052601160045260246000fd5b92915050565b634e487b7160e01b600052603260045260246000fd5b634e487b7160e01b600052603160045260246000fdfea2646970667358221220c71c84bab183378a8c23bd2d63fdf6083b8dcfa1a377638db66c85de7de4f31964736f6c6343000811003360806040523480156200001157600080fd5b50604051620018883803806200188883398101604081905262000034916200017d565b600280546001600160a01b03199081169091556001805433921682178155600091825260036020526040909120805460ff19169091179055600482905582828260056200008282826200030b565b506001600160a01b038316156200009e576200009e83620000aa565b505050505050620003d7565b6001546001600160a01b03163314620000f65760405162461bcd60e51b815260206004820152600a60248201526927a7262cafa7aba722a960b11b604482015260640160405180910390fd5b600080546001600160a01b0319166001600160a01b0383169081179091556040516309fded4760e31b8152306004820152634fef6a3890602401600060405180830381600087803b1580156200014b57600080fd5b505af115801562000160573d6000803e3d6000fd5b5050505050565b634e487b7160e01b600052604160045260246000fd5b6000806000606084860312156200019357600080fd5b83516001600160a01b0381168114620001ab57600080fd5b60208581015160408701519295509350906001600160401b0380821115620001d257600080fd5b818701915087601f830112620001e757600080fd5b815181811115620001fc57620001fc62000167565b604051601f8201601f19908116603f0116810190838211818310171562000227576200022762000167565b816040528281528a868487010111156200024057600080fd5b600093505b8284101562000264578484018601518185018701529285019262000245565b60008684830101528096505050505050509250925092565b600181811c908216806200029157607f821691505b602082108103620002b257634e487b7160e01b600052602260045260246000fd5b50919050565b601f8211156200030657600081815260208120601f850160051c81016020861015620002e15750805b601f850160051c820191505b818110156200030257828155600101620002ed565b5050505b505050565b81516001600160401b0381111562000327576200032762000167565b6200033f816200033884546200027c565b84620002b8565b602080601f8311600181146200037757600084156200035e5750858301515b600019600386901b1c1916600185901b17855562000302565b600085815260208120601f198616915b82811015620003a85788860151825594840194600190910190840162000387565b5085821015620003c75787850151600019600388901b60f8161c191681555b5050505050600190811b01905550565b6114a180620003e76000396000f3fe608060405234801561001057600080fd5b50600436106101375760003560e01c80636b122fe0116100b8578063af640d0f1161007c578063af640d0f146102a6578063bf4fe57e146102af578063cda5a8bb146102c2578063db9b481d146102d5578063e45d21da146102e8578063f2fde38b146102fb57600080fd5b80636b122fe0146102515780638b282947146102675780638da5cb5b1461027a578063902f57771461028b5780639d2c76b41461029357600080fd5b806339227a66116100ff57806339227a66146101d557806347b84f41146101f55780634cc82215146102185780634fef6a381461022b578063552eb8bc1461023e57600080fd5b80630e611d381461013c5780631ab06ee5146101625780631b045e18146101775780632bc88cae1461018a57806330b67baa146101aa575b600080fd5b61014f61014a366004610e58565b61030e565b6040519081526020015b60405180910390f35b610175610170366004610e88565b610336565b005b610175610185366004610e58565b610365565b61019d610198366004610e58565b610398565b6040516101599190610ef0565b6000546101bd906001600160a01b031681565b6040516001600160a01b039091168152602001610159565b6101e86101e3366004610f03565b610450565b6040516101599190610f20565b610208610203366004610e58565b6104d5565b6040519015158152602001610159565b610175610226366004610f64565b610558565b610175610239366004610f03565b6106d5565b6101e861024c366004610e58565b61077d565b6102596107aa565b604051610159929190610f93565b610175610275366004611103565b61087e565b6001546001600160a01b03166101bd565b61019d610a8d565b6101756102a1366004610f03565b610b1b565b61014f60045481565b6101756102bd366004610f03565b610bb4565b6101e86102d036600461114a565b610c64565b6101756102e3366004610f03565b610cf2565b6002546101bd906001600160a01b031681565b610175610309366004610f03565b610d80565b60008061031b8484610398565b80602001905181019061032e9190611191565b949350505050565b610361828260405160200161034d91815260200190565b60405160208183030381529060405261087e565b5050565b6001546001600160a01b031633146103615760405162461bcd60e51b815260040161038f906111aa565b60405180910390fd5b6001600160a01b038116600090815260066020908152604080832085845290915290208054606091906103ca906111ce565b80601f01602080910402602001604051908101604052809291908181526020018280546103f6906111ce565b80156104435780601f1061041857610100808354040283529160200191610443565b820191906000526020600020905b81548152906001019060200180831161042657829003601f168201915b5050505050905092915050565b6001600160a01b03808216600090815260086020526040808220548151631043567360e21b81529151606094919091169263410d59cc92600480820193918290030181865afa1580156104a7573d6000803e3d6000fd5b505050506040513d6000823e601f3d908101601f191682016040526104cf9190810190611208565b92915050565b6001600160a01b03818116600090815260086020526040808220549051636667bd4760e11b8152600481018690529192169063cccf7a8e90602401602060405180830381865afa15801561052d573d6000803e3d6000fd5b505050506040513d601f19601f8201168201806040525081019061055191906112ae565b9392505050565b3360009081526003602052604090205460ff166105a55760405162461bcd60e51b815260206004820152600b60248201526a27a7262cafaba924aa22a960a91b604482015260640161038f565b3360009081526008602052604090819020549051634cc8221560e01b8152600481018390526001600160a01b0390911690634cc8221590602401600060405180830381600087803b1580156105f957600080fd5b505af115801561060d573d6000803e3d6000fd5b505033600090815260076020908152604080832054600683528184208785529092529182902091516001600160a01b039091169350636526db7a925061065391906112d0565b60405190819003812060e083901b6001600160e01b0319168252600482015260248101849052604401600060405180830381600087803b15801561069657600080fd5b505af11580156106aa573d6000803e3d6000fd5b505033600090815260066020908152604080832086845290915281206106d293509150610df5565b50565b6001546001600160a01b031633146106ff5760405162461bcd60e51b815260040161038f906111aa565b6000546001600160a01b031633146107595760405162461bcd60e51b815260206004820181905260248201527f4f6e6c7920776f726c642063616e20617574686f72697a652077726974657273604482015260640161038f565b6001600160a01b03166000908152600360205260409020805460ff19166001179055565b60606105518360405160200161079591815260200190565b60405160208183030381529060405283610c64565b604080516001808252818301909252606091829190816020015b60608152602001906001900390816107c4575050604080516001808252818301909252919350602080830190803683370190505090506040518060400160405280600581526020016476616c756560d81b8152508260008151811061082b5761082b611346565b6020026020010181905250600d8160008151811061084b5761084b611346565b6020026020010190602181111561086457610864610f7d565b9081602181111561087757610877610f7d565b9052509091565b3360009081526003602052604090205460ff166108cb5760405162461bcd60e51b815260206004820152600b60248201526a27a7262cafaba924aa22a960a91b604482015260640161038f565b6002546001600160a01b03166108ee57600280546001600160a01b031916331790555b3360009081526008602052604090819020549051630801f16960e11b8152600481018490526001600160a01b0390911690631003e2d290602401600060405180830381600087803b15801561094257600080fd5b505af1158015610956573d6000803e3d6000fd5b505033600090815260076020908152604080832054600683528184208885529092529182902091516001600160a01b039091169350839250636526db7a9161099d916112d0565b60405190819003812060e083901b6001600160e01b0319168252600482015260248101869052604401600060405180830381600087803b1580156109e057600080fd5b505af11580156109f4573d6000803e3d6000fd5b50508351602085012060405163771602f760e01b81526004810191909152602481018690526001600160a01b038416925063771602f79150604401600060405180830381600087803b158015610a4957600080fd5b505af1158015610a5d573d6000803e3d6000fd5b505033600090815260066020908152604080832088845290915290209150610a87905083826113ab565b50505050565b60058054610a9a906111ce565b80601f0160208091040260200160405190810160405280929190818152602001828054610ac6906111ce565b8015610b135780601f10610ae857610100808354040283529160200191610b13565b820191906000526020600020905b815481529060010190602001808311610af657829003601f168201915b505050505081565b6001546001600160a01b03163314610b455760405162461bcd60e51b815260040161038f906111aa565b600080546001600160a01b0319166001600160a01b0383169081179091556040516309fded4760e31b8152306004820152634fef6a3890602401600060405180830381600087803b158015610b9957600080fd5b505af1158015610bad573d6000803e3d6000fd5b5050505050565b6001546001600160a01b03163314610bde5760405162461bcd60e51b815260040161038f906111aa565b6000546001600160a01b03163314610c435760405162461bcd60e51b815260206004820152602260248201527f4f6e6c7920776f726c642063616e20756e617574686f72697a65207772697465604482015261727360f01b606482015260840161038f565b6001600160a01b03166000908152600360205260409020805460ff19169055565b6001600160a01b03818116600090815260076020908152604091829020548551918601919091209151631e5b17a560e21b81526004810192909252606092169063796c5e9490602401600060405180830381865afa158015610cca573d6000803e3d6000fd5b505050506040513d6000823e601f3d908101601f191682016040526105519190810190611208565b6002546001600160a01b03163314610d5e5760405162461bcd60e51b815260206004820152602960248201527f4f6e6c7920676c6f62616c206f776e65722063616e206368616e676520676c6f6044820152683130b61037bbb732b960b91b606482015260840161038f565b600280546001600160a01b0319166001600160a01b0392909216919091179055565b6001546001600160a01b03163314610daa5760405162461bcd60e51b815260040161038f906111aa565b33600090815260036020526040808220805460ff19908116909155600180546001600160a01b0319166001600160a01b03959095169485178155938352912080549091169091179055565b508054610e01906111ce565b6000825580601f10610e11575050565b601f0160209004906000526020600020908101906106d291905b80821115610e3f5760008155600101610e2b565b5090565b6001600160a01b03811681146106d257600080fd5b60008060408385031215610e6b57600080fd5b823591506020830135610e7d81610e43565b809150509250929050565b60008060408385031215610e9b57600080fd5b50508035926020909101359150565b6000815180845260005b81811015610ed057602081850181015186830182015201610eb4565b506000602082860101526020601f19601f83011685010191505092915050565b6020815260006105516020830184610eaa565b600060208284031215610f1557600080fd5b813561055181610e43565b6020808252825182820181905260009190848201906040850190845b81811015610f5857835183529284019291840191600101610f3c565b50909695505050505050565b600060208284031215610f7657600080fd5b5035919050565b634e487b7160e01b600052602160045260246000fd5b6000604082016040835280855180835260608501915060608160051b8601019250602080880160005b83811015610fea57605f19888703018552610fd8868351610eaa565b95509382019390820190600101610fbc565b50508584038187015286518085528782019482019350915060005b8281101561103f5784516022811061102d57634e487b7160e01b600052602160045260246000fd5b84529381019392810192600101611005565b5091979650505050505050565b634e487b7160e01b600052604160045260246000fd5b604051601f8201601f1916810167ffffffffffffffff8111828210171561108b5761108b61104c565b604052919050565b600082601f8301126110a457600080fd5b813567ffffffffffffffff8111156110be576110be61104c565b6110d1601f8201601f1916602001611062565b8181528460208386010111156110e657600080fd5b816020850160208301376000918101602001919091529392505050565b6000806040838503121561111657600080fd5b82359150602083013567ffffffffffffffff81111561113457600080fd5b61114085828601611093565b9150509250929050565b6000806040838503121561115d57600080fd5b823567ffffffffffffffff81111561117457600080fd5b61118085828601611093565b9250506020830135610e7d81610e43565b6000602082840312156111a357600080fd5b5051919050565b6020808252600a908201526927a7262cafa7aba722a960b11b604082015260600190565b600181811c908216806111e257607f821691505b60208210810361120257634e487b7160e01b600052602260045260246000fd5b50919050565b6000602080838503121561121b57600080fd5b825167ffffffffffffffff8082111561123357600080fd5b818501915085601f83011261124757600080fd5b8151818111156112595761125961104c565b8060051b915061126a848301611062565b818152918301840191848101908884111561128457600080fd5b938501935b838510156112a257845182529385019390850190611289565b98975050505050505050565b6000602082840312156112c057600080fd5b8151801515811461055157600080fd5b60008083546112de816111ce565b600182811680156112f6576001811461130b5761133a565b60ff198416875282151583028701945061133a565b8760005260208060002060005b858110156113315781548a820152908401908201611318565b50505082870194505b50929695505050505050565b634e487b7160e01b600052603260045260246000fd5b601f8211156113a657600081815260208120601f850160051c810160208610156113835750805b601f850160051c820191505b818110156113a25782815560010161138f565b5050505b505050565b815167ffffffffffffffff8111156113c5576113c561104c565b6113d9816113d384546111ce565b8461135c565b602080601f83116001811461140e57600084156113f65750858301515b600019600386901b1c1916600185901b1785556113a2565b600085815260208120601f198616915b8281101561143d5788860151825594840194600190910190840161141e565b508582101561145b5787850151600019600388901b60f8161c191681555b5050505050600190811b0190555056fea26469706673582212205411edf3ba8dd1ecd499fe6e478b545648e46987cfc4d5dd5d677644fe877fe664736f6c63430008110033",
    "linkReferences": {}
  },
  "methodIdentifiers": {
    "getProcedures()": "c0a90d24",
    "getRecords()": "8eff3c29"
  },
  "id": 7
}